:020000040800F2
:100000000028002005180008951700089B17000815
:10001000A1170008A7170008AD170008000000008E
:10002000000000000000000000000000B3170008FE
:10003000BF17000800000000CB170008D717000802
:100040004D1800084D1800084D1800084D180008FC
:100050004D1800084D1800084D1800084D180008EC
:100060004D1800084D1800084D1800084D180008DC
:100070004D1800084D1800084D1800084D180008CC
:100080004D1800084D1800084D1800084D180008BC
:100090004D1800084D1800084D1800084D180008AC
:1000A0004D1800084D1800084D1800084D1800089C
:1000B000E51700084D180008000000004D18000862
:1000C0004D18000800000000000000004D18000856
:1000D000000000004D1800084D1800080000000046
:1000E0004D1800084D1800084D18000800000000C9
:1000F0000000000000000000000000000000000000
:0C01000000000000000000005FF808F1A3
:10010C0010B5054C237833B9044B13B10448AFF345
:10011C0000800123237010BD34000020000000007B
:10012C00502E000808B5034B1BB103490348AFF32D
:10013C00008008BD0000000038000020502E000890
:10014C0080B483B000AF7860074B1B687A6892FB71
:10015C00F3F3064A1360064B00221A6000BF0C37FB
:10016C00BD4680BC704700BF240000205400002016
:10017C005000002080B483B000AF7860074B1B6840
:10018C007A6892FBF3F3064A1360064B00221A605E
:10019C0000BF0C37BD4680BC704700BF2400002058
:1001AC005C0000205800002080B483B000AF786061
:1001BC00074B1B687A6892FBF3F3064A1360064BF5
:1001CC0000221A6000BF0C37BD4680BC704700BFD0
:1001DC0024000020640000206000002080B400AFE8
:1001EC00194B1B68002B0BDD174B1B68013B164A88
:1001FC001360154B1B68002B02D1144B01221A60A3
:10020C00134B1B68002B0BDD114B1B68013B104A79
:10021C0013600F4B1B68002B02D10E4B01221A608E
:10022C000D4B1B68002B0BDD0B4B1B68013B0A4A6B
:10023C001360094B1B68002B02D1084B01221A607A
:10024C0000BFBD4680BC7047540000205000002009
:10025C005C0000205800002064000020600000209A
:10026C0080B584B000AF01F0EDFA00F093F800F027
:10027C0019F900F0CBF80023FB600023BB6000F001
:10028C0071F9002000F0DCF900F084FBFA20FFF794
:10029C0057FF4FF47A70FFF76DFF6420FFF784FF70
:1002AC00344802F017FA344B1B68012B19D1FB6848
:1002BC00072B0DDD00237B6005E0786800F008FC5F
:1002CC007B6801337B607B68072BF6DD0023FB60CA
:1002DC00FB685A1CFA60184600F092FB6420FFF78A
:1002EC0063FF264B1B68012B0DD1BB68032B01DD73
:1002FC000023BB60BB685A1CBA60184600F0A0F91A
:10030C00FA20FFF71DFF1E4B1B68012BCBD12021C0
:10031C001C4801F099FD10211A4801F095FD1A4B6B
:10032C001B680133184A1360174B1B683B2B07DD06
:10033C00154B00221A60154B1B680133134A1360CE
:10034C00124B1B683B2B07DD104B00221A60104B25
:10035C001B6801330E4A13600D4B1B68172B02DD13
:10036C000B4B00221A6000F0FDF84FF47A70FFF787
:10037C0001FF98E76800002060000020500000207A
:10038C005800002000080140200000201C00002024
:10039C001800002080B590B000AF07F11803282298
:1003AC000021184602F046FD3B1D00221A605A60DF
:1003BC009A60DA601A610223BB610123BB621023CD
:1003CC00FB6200237B6307F11803184601F056FD0E
:1003DC000346002B01D001F07BF90F237B60002337
:1003EC00BB600023FB6000233B6100237B613B1D52
:1003FC000021184601F0C2FF0346002B01D001F08A
:10040C0067F900BF4037BD4680BD000080B586B09F
:10041C0000AF07F1080300221A605A609A60DA6094
:10042C003B4600221A605A601D4B4FF080421A6006
:10043C001B4B41F63F725A60194B00229A60184BC5
:10044C000922DA60164B00221A61154B00229A61C0
:10045C00134802F0EFF80346002B01D001F038F9F5
:10046C004FF48053BB6007F1080319460C4802F0A7
:10047C006DFA0346002B01D001F02AF900233B60F2
:10048C0000237B603B461946054802F045FC0346B9
:10049C00002B01D001F01CF900BF1837BD4680BD00
:1004AC006800002080B586B000AF07F10803002279
:1004BC001A605A609A60DA60224B9B69214A43F0B9
:1004CC00040393611F4B9B6903F004037B607B68FF
:1004DC001C4B9B691B4A43F008039361194B9B69A6
:1004EC0003F008033B603B6800224FF6FC71164892
:1004FC0001F092FC00224FF67F71144801F08CFC45
:10050C004FF6FC73BB600123FB6000233B610223AD
:10051C007B6107F1080319460B4801F003FB4FF60A
:10052C007F73BB600123FB6000233B6102237B6173
:10053C0007F108031946054801F0F4FA00BF183713
:10054C00BD4680BD0010024000080140000C014077
:10055C0080B582B000AF7860FFF740FE00BF08376F
:10056C00BD4680BD80B400AF314B1B68092B12DC3B
:10057C00304B00221A602E4B19682F4B83FB012342
:10058C009A10CB17D21A13469B0013445B00CA1A5D
:10059C00284B5A6018E0264B1B68274A82FB031233
:1005AC009210DB17D31A234A1360214B1968224B84
:1005BC0083FB01239A10CB17D21A13469B001344CA
:1005CC005B00CA1A1B4B5A601C4B1B68092B12DCB4
:1005DC00184B00229A60194B1968174B83FB0123A7
:1005EC009A10CB17D21A13469B0013445B00CA1AFD
:1005FC00104BDA6018E0114B1B680F4A82FB031298
:10060C009210DB17D31A0B4A93600C4B19680A4BE8
:10061C0083FB01239A10CB17D21A13469B00134469
:10062C005B00CA1A034BDA6000BFBD4680BC704742
:10063C001800002000000020676666661C00002081
:10064C0080B582B000AF78607B68032B00F28480A9
:10065C0001A252F823F000BF75060008B10600088D
:10066C00ED06000829070008002240213C4801F053
:10067C00D3FB012280213A4801F0CEFB01224FF43A
:10068C008071374801F0C8FB01224FF400713448E7
:10069C0001F0C2FB334A7B6852F82330184600F055
:1006AC0063F859E0012240212D4801F0B5FB0022EE
:1006BC0080212B4801F0B0FB01224FF480712848B7
:1006CC0001F0AAFB01224FF40071254801F0A4FBB4
:1006DC00244A7B6852F82330184600F045F83BE07A
:1006EC00012240211E4801F097FB012280211C4869
:1006FC0001F092FB00224FF48071194801F08CFB41
:10070C0001224FF40071164801F086FB154A7B68F4
:10071C0052F82330184600F027F81DE00122402142
:10072C000F4801F079FB012280210D4801F074FB88
:10073C0001224FF480710A4801F06EFB00224FF445
:10074C000071074801F068FB064A7B6852F82330B9
:10075C00184600F009F800BF00BF0837BD4680BD41
:10076C00000801400000002080B582B000AF786026
:10077C0001220121864801F04FFB0122022184480D
:10078C0001F04AFB01220421814801F045FB0122C2
:10079C0008217F4801F040FB012210217C4801F028
:1007AC003BFB012220217A4801F036FB012240213B
:1007BC00774801F031FB7B68092B00F2E58001A240
:1007CC0052F823F0F90700082B0800083D08000830
:1007DC006708000891080008B3080008DD08000845
:1007EC000F0900082909000863090008012168485D
:1007FC0001F02AFB0221664801F026FB0421644823
:10080C0001F022FB0821624801F01EFB1021604818
:10081C0001F01AFB20215E4801F016FBB4E0022126
:10082C005B4801F011FB0421594801F00DFBABE0D2
:10083C000121574801F008FB0221554801F004FB47
:10084C000821534801F000FB1021514801F0FCFA3B
:10085C0040214F4801F0F8FA96E001214C4801F094
:10086C00F3FA02214A4801F0EFFA0421484801F05A
:10087C00EBFA0821464801F0E7FA4021444801F020
:10088C00E3FA81E00221424801F0DEFA04214048FB
:10089C0001F0DAFA20213E4801F0D6FA40213C481A
:1008AC0001F0D2FA70E00121394801F0CDFA0421AF
:1008BC00374801F0C9FA0821354801F0C5FA202162
:1008CC00334801F0C1FA4021314801F0BDFA5BE038
:1008DC0001212F4801F0B8FA04212D4801F0B4FA97
:1008EC0008212B4801F0B0FA1021294801F0ACFA8C
:1008FC002021274801F0A8FA4021254801F0A4FA4C
:10090C0042E00121224801F09FFA0221204801F027
:10091C009BFA04211E4801F097FA35E001211C488E
:10092C0001F092FA02211A4801F08EFA04211848BB
:10093C0001F08AFA0821164801F086FA10211448B1
:10094C0001F082FA2021124801F07EFA4021104871
:10095C0001F07AFA18E001210D4801F075FA022134
:10096C000B4801F071FA0421094801F06DFA0821D5
:10097C00074801F069FA2021054801F065FA402189
:10098C00034801F061FA00BF00BF0837BD4680BDC7
:10099C00000C014080B500AF01224FF48071174864
:1009AC0001F03AFA01224FF40071144801F034FAC4
:1009BC0001224FF48061114801F02EFA01224FF40C
:1009CC0000610E4801F028FA01224FF480510B48C7
:1009DC0001F022FA01224FF40051084801F01CFAF0
:1009EC0001224FF48041054801F016FA01224FF420
:1009FC000041024801F010FA00BF80BD000C01401C
:100A0C0080B582B000AF78607B68072B5AD801A202
:100A1C0052F823F0410A0008530A0008650A00083E
:100A2C00770A0008890A00089B0A0008AD0A00082A
:100A3C00BF0A0008254A7B6813441B78194678685E
:100A4C0000F072F83EE0214A7B6813441B7819468B
:100A5C00786800F069F835E01C4A7B6813441B7811
:100A6C001946786800F060F82CE0184A7B6813444B
:100A7C001B781946786800F057F823E0134A7B6816
:100A8C0013441B781946786800F04EF81AE00F4AA8
:100A9C007B6813441B781946786800F045F811E020
:100AAC000A4A7B6813441B781946786800F03CF8B6
:100ABC0008E0064A7B6813441B781946786800F0F6
:100ACC0033F800BF00BF0837BD4680BD10000020C2
:100ADC0080B485B000AF7860124A7B6813441B78F1
:100AEC0023F07F03FB73FB7BDB09FB730D4A7B68F5
:100AFC0013441B785B00D9B20A4A7B6813440A463C
:100B0C001A70084A7B6813441A78FB7B1343D9B2DA
:100B1C00044A7B6813440A461A7000BF1437BD465A
:100B2C0080BC70471000002080B582B000AF7860A8
:100B3C000B46FB707B68072B00F2C28501A252F8B2
:100B4C0023F000BF710B0008DB0C00084D0E0008F1
:100B5C00B50F0008251100088D120008FD130008C0
:100B6C006515000800224FF48071B34801F054F968
:100B7C0001224FF40071B04801F04EF901224FF4FC
:100B8C008061AD4801F048F901224FF40061AA4898
:100B9C0001F042F901224FF48051A74801F03CF9D1
:100BAC0001224FF40051A44801F036F901224FF410
:100BBC008041A14801F030F901224FF400419E48D8
:100BCC0001F02AF9FB7803F00103002B0CBF012381
:100BDC000023DBB21A464FF40041984801F01CF98F
:100BEC00FB785B08FB70FB7803F00103002B0CBF58
:100BFC0001230023DBB21A464FF480418F4801F0E9
:100C0C000BF9FB785B08FB70FB7803F00103002BFE
:100C1C000CBF01230023DBB21A464FF40051874866
:100C2C0001F0FAF8FB785B08FB70FB7803F001032A
:100C3C00002B0CBF01230023DBB21A464FF480516A
:100C4C007E4801F0E9F8FB785B08FB70FB7803F059
:100C5C000103002B0CBF01230023DBB21A464FF417
:100C6C000061764801F0D8F8FB785B08FB70FB78E4
:100C7C0003F00103002B0CBF01230023DBB21A4647
:100C8C004FF480616D4801F0C7F8FB785B08FB708E
:100C9C00FB7803F00103002B0CBF01230023DBB214
:100CAC001A460821654801F0B7F8FB785B08FB7021
:100CBC00FB7803F00103002B0CBF01230023DBB2F4
:100CCC001A4604215D4801F0A7F800F0F9BC012296
:100CDC004FF48071584801F09FF800224FF40071D6
:100CEC00554801F099F801224FF48061524801F007
:100CFC0093F801224FF400614F4801F08DF8012266
:100D0C004FF480514C4801F087F801224FF4005108
:100D1C00494801F081F801224FF48041464801F026
:100D2C007BF801224FF40041434801F075F8FB7841
:100D3C0003F00103002B0CBF01230023DBB21A4686
:100D4C004FF400413D4801F067F8FB785B08FB70FD
:100D5C00FB7803F00103002B0CBF01230023DBB253
:100D6C001A464FF48041354801F056F8FB785B0881
:100D7C00FB70FB7803F00103002B0CBF0123002355
:100D8C00DBB21A464FF400512C4801F045F8FB78C1
:100D9C005B08FB70FB7803F00103002B0CBF0123F5
:100DAC000023DBB21A464FF48051244801F034F88A
:100DBC00FB785B08FB70FB7803F00103002B0CBF86
:100DCC0001230023DBB21A464FF400611B4801F0EB
:100DDC0023F8FB785B08FB70FB7803F00103002B16
:100DEC000CBF01230023DBB21A464FF48061134879
:100DFC0001F012F8FB785B08FB70FB7803F0010341
:100E0C00002B0CBF01230023DBB21A4608210B4830
:100E1C0001F002F8FB785B08FB70FB7803F0010330
:100E2C00002B0CBF01230023DBB21A46042103481C
:100E3C0000F0F2FF00F044BC000C0140000801403F
:100E4C0001224FF48071B24800F0E6FF01224FF40A
:100E5C000071AF4800F0E0FF00224FF48061AC4815
:100E6C0000F0DAFF01224FF40061A94800F0D4FF32
:100E7C0001224FF48051A64800F0CEFF01224FF41E
:100E8C000051A34800F0C8FF01224FF48041A04854
:100E9C0000F0C2FF01224FF400419D4800F0BCFF5E
:100EAC00FB7803F00103002B0CBF01230023DBB202
:100EBC001A464FF40041974800F0AEFFFB785B08F0
:100ECC00FB70FB7803F00103002B0CBF0123002304
:100EDC00DBB21A464FF480418E4800F09DFFFB7840
:100EEC005B08FB70FB7803F00103002B0CBF0123A4
:100EFC000023DBB21A464FF40051864800F08CFFF9
:100F0C00FB785B08FB70FB7803F00103002B0CBF34
:100F1C0001230023DBB21A464FF480517D4800F0C8
:100F2C007BFFFB785B08FB70FB7803F00103002B65
:100F3C000CBF01230023DBB21A464FF40061754845
:100F4C0000F06AFFFB785B08FB70FB7803F0010391
:100F5C00002B0CBF01230023DBB21A464FF4806137
:100F6C006C4800F059FFFB785B08FB70FB7803F0D2
:100F7C000103002B0CBF01230023DBB21A4608210E
:100F8C00644800F049FFFB785B08FB70FB7803F0CA
:100F9C000103002B0CBF01230023DBB21A460421F2
:100FAC005C4800F039FF8BE301224FF48071584804
:100FBC0000F032FF01224FF40071554800F02CFF75
:100FCC0001224FF48061524800F026FF00224FF4BA
:100FDC0000614F4800F020FF01224FF480514C4833
:100FEC0000F01AFF01224FF40051494800F014FFA1
:100FFC0001224FF48041464800F00EFF01224FF4CD
:10100C000041434800F008FFFB7803F00103002B7C
:10101C000CBF01230023DBB21A464FF400413D48BC
:10102C0000F0FAFEFB785B08FB70FB7803F0010321
:10103C00002B0CBF01230023DBB21A464FF4804176
:10104C00344800F0E9FEFB785B08FB70FB7803F09A
:10105C000103002B0CBF01230023DBB21A464FF413
:10106C0000512C4800F0D8FEFB785B08FB70FB7835
:10107C0003F00103002B0CBF01230023DBB21A4643
:10108C004FF48051234800F0C7FEFB785B08FB70DF
:10109C00FB7803F00103002B0CBF01230023DBB210
:1010AC001A464FF400611B4800F0B6FEFB785B0853
:1010BC00FB70FB7803F00103002B0CBF0123002312
:1010CC00DBB21A464FF48061124800F0A5FEFB78A3
:1010DC005B08FB70FB7803F00103002B0CBF0123B2
:1010EC000023DBB21A4608210A4800F095FEFB7873
:1010FC005B08FB70FB7803F00103002B0CBF012392
:10110C000023DBB21A460421024800F085FED7E228
:10111C00000C01400008014001224FF48071B248DC
:10112C0000F07AFE01224FF40071AF4800F074FE1B
:10113C0001224FF48061AC4800F06EFE01224FF4A6
:10114C000061A94800F068FE00224FF48051A648C7
:10115C0000F062FE01224FF40051A34800F05CFE47
:10116C0001224FF48041A04800F056FE01224FF4BA
:10117C0000419D4800F050FEFB7803F00103002B6A
:10118C000CBF01230023DBB21A464FF400419748F1
:10119C0000F042FEFB785B08FB70FB7803F0010368
:1011AC00002B0CBF01230023DBB21A464FF4804105
:1011BC008E4800F031FEFB785B08FB70FB7803F087
:1011CC000103002B0CBF01230023DBB21A464FF4A2
:1011DC000051864800F020FEFB785B08FB70FB7822
:1011EC0003F00103002B0CBF01230023DBB21A46D2
:1011FC004FF480517D4800F00FFEFB785B08FB70CC
:10120C00FB7803F00103002B0CBF01230023DBB29E
:10121C001A464FF40061754800F0FEFDFB785B0840
:10122C00FB70FB7803F00103002B0CBF01230023A0
:10123C00DBB21A464FF480616C4800F0EDFDFB7890
:10124C005B08FB70FB7803F00103002B0CBF012340
:10125C000023DBB21A460821644800F0DDFDFB7860
:10126C005B08FB70FB7803F00103002B0CBF012320
:10127C000023DBB21A4604215C4800F0CDFD1FE2CE
:10128C0001224FF48071584800F0C6FD01224FF442
:10129C000071554800F0C0FD01224FF480615248A6
:1012AC0000F0BAFD01224FF400614F4800F0B4FD8C
:1012BC0001224FF480514C4800F0AEFD00224FF457
:1012CC000051494800F0A8FD01224FF480414648E6
:1012DC0000F0A2FD01224FF40041434800F09CFDB8
:1012EC00FB7803F00103002B0CBF01230023DBB2BE
:1012FC001A464FF400413D4800F08EFDFB785B0828
:10130C00FB70FB7803F00103002B0CBF01230023BF
:10131C00DBB21A464FF48041344800F07DFDFB7877
:10132C005B08FB70FB7803F00103002B0CBF01235F
:10133C000023DBB21A464FF400512C4800F06CFD30
:10134C00FB785B08FB70FB7803F00103002B0CBFF0
:10135C0001230023DBB21A464FF48051234800F0DE
:10136C005BFDFB785B08FB70FB7803F00103002B43
:10137C000CBF01230023DBB21A464FF400611B485B
:10138C0000F04AFDFB785B08FB70FB7803F001036F
:10139C00002B0CBF01230023DBB21A464FF48061F3
:1013AC00124800F039FDFB785B08FB70FB7803F00A
:1013BC000103002B0CBF01230023DBB21A460821CA
:1013CC000A4800F029FDFB785B08FB70FB7803F002
:1013DC000103002B0CBF01230023DBB21A460421AE
:1013EC00024800F019FD6BE1000C014000080140BF
:1013FC0001224FF48071B44800F00EFD01224FF42D
:10140C000071B14800F008FD01224FF48061AE4834
:10141C0000F002FD01224FF40061AB4800F0FCFC2F
:10142C0001224FF48051A84800F0F6FC01224FF441
:10143C000051A54800F0F0FC00224FF48041A24876
:10144C0000F0EAFC01224FF400419F4800F0E4FC5C
:10145C00FB7803F00103002B0CBF01230023DBB24C
:10146C001A464FF40041994800F0D6FCFB785B0813
:10147C00FB70FB7803F00103002B0CBF012300234E
:10148C00DBB21A464FF48041904800F0C5FCFB7863
:10149C005B08FB70FB7803F00103002B0CBF0123EE
:1014AC000023DBB21A464FF40051884800F0B4FC1C
:1014BC00FB785B08FB70FB7803F00103002B0CBF7F
:1014CC0001230023DBB21A464FF480517F4800F011
:1014DC00A3FCFB785B08FB70FB7803F00103002B8B
:1014EC000CBF01230023DBB21A464FF4006177488E
:1014FC0000F092FCFB785B08FB70FB7803F00103B7
:10150C00002B0CBF01230023DBB21A464FF4806181
:10151C006E4800F081FCFB785B08FB70FB7803F0F5
:10152C000103002B0CBF01230023DBB21A46082158
:10153C00664800F071FCFB785B08FB70FB7803F0ED
:10154C000103002B0CBF01230023DBB21A4604213C
:10155C005E4800F061FCB3E001224FF480715A4800
:10156C0000F05AFC01224FF40071574800F054FC73
:10157C0001224FF48061544800F04EFC01224FF4DC
:10158C000061514800F048FC01224FF480514E4854
:10159C0000F042FC01224FF400514B4800F03CFC9F
:1015AC0001224FF48041484800F036FC00224FF4F1
:1015BC000041454800F030FCFB7803F00103002BA0
:1015CC000CBF01230023DBB21A464FF400413F4805
:1015DC0000F022FCFB785B08FB70FB7803F0010346
:1015EC00002B0CBF01230023DBB21A464FF48041C1
:1015FC00364800F011FCFB785B08FB70FB7803F0BD
:10160C000103002B0CBF01230023DBB21A464FF45D
:10161C0000512E4800F000FCFB785B08FB70FB7857
:10162C0003F00103002B0CBF01230023DBB21A468D
:10163C004FF48051254800F0EFFBFB785B08FB7002
:10164C00FB7803F00103002B0CBF01230023DBB25A
:10165C001A464FF400611D4800F0DEFBFB785B0876
:10166C00FB70FB7803F00103002B0CBF012300235C
:10167C00DBB21A464FF48061144800F0CDFBFB78C6
:10168C005B08FB70FB7803F00103002B0CBF0123FC
:10169C000023DBB21A4608210C4800F0BDFBFB7896
:1016AC005B08FB70FB7803F00103002B0CBF0123DC
:1016BC000023DBB21A460421044800F0ADFB00BF46
:1016CC0000BF0837BD4680BD000C0140000801403A
:1016DC0080B400AF72B600BFFEE7000080B485B0E6
:1016EC0000AF154B9B69144A43F001039361124BF5
:1016FC009B6903F00103BB60BB680F4BDB690E4AAF
:10170C0043F08053D3610C4BDB6903F080537B6057
:10171C007B680A4B5B68FB60FB6823F0E063FB6053
:10172C00FB6843F08063FB60044AFB68536000BFB6
:10173C001437BD4680BC70470010024000000140C9
:10174C0080B584B000AF78607B681B68B3F1804FC4
:10175C0013D10C4BDB690B4A43F00103D361094BEA
:10176C00DB6903F00103FB60FB68002200211C20F5
:10177C0000F0A1F91C2000F0BAF900BF1037BD46EB
:10178C0080BD00BF0010024080B400AFFEE780B403
:10179C0000AFFEE780B400AFFEE780B400AFFEE719
:1017AC0080B400AFFEE780B400AF00BFBD4680BC84
:1017BC00704780B400AF00BFBD4680BC704780B49A
:1017CC0000AF00BFBD4680BC704780B500AF00F0D5
:1017DC007FF800BF80BD000080B500AF024800F06C
:1017EC00C5FF00BF80BD00BF6800002080B400AF03
:1017FC0000BFBD4680BC7047FFF7F8FF0B480C4993
:10180C000C4A002302E0D458C4500433C4188C4250
:10181C00F9D3094A094C002301E013600432A242B7
:10182C00FBD301F0E3FAFEF71BFD7047000000202C
:10183C0034000020942E000834000020B400002056
:10184C00FEE7000080B500AF084B1B68074A43F069
:10185C0010031360032000F023F90F2000F008F8A8
:10186C00FFF73CFF0023184680BD00BF002002405C
:10187C0080B582B000AF7860124B1A68124B1B789F
:10188C0019464FF47A73B3FBF1F3B2FBF3F318463A
:10189C0000F03BF90346002B01D001230EE07B68DE
:1018AC000F2B0AD8002279684FF0FF3000F003F9B3
:1018BC00064A7B681360002300E0012318460837B2
:1018CC00BD4680BD28000020300000202C000020E8
:1018DC0080B400AF054B1B781A46054B1B681344AC
:1018EC00034A136000BFBD4680BC70473000002027
:1018FC00B000002080B400AF024B1B681846BD46F8
:10190C0080BC7047B000002080B485B000AF786018
:10191C007B6803F00703FB600C4BDB68BB60BA68A9
:10192C004FF6FF031340BB60FB681A02BB681343FE
:10193C0043F0BF6343F40033BB60044ABB68D3601D
:10194C0000BF1437BD4680BC704700BF00ED00E0FF
:10195C0080B400AF044BDB681B0A03F00703184686
:10196C00BD4680BC704700BF00ED00E080B483B082
:10197C0000AF0346FB7197F90730002B0BDBFB79AB
:10198C0003F01F02064997F907305B09012000FAA2
:10199C0002F241F8232000BF0C37BD4680BC7047D3
:1019AC0000E100E080B483B000AF03463960FB7106
:1019BC0097F90730002B0ADB3B68DAB20C4997F930
:1019CC0007301201D2B20B4483F800230AE03B68C3
:1019DC00DAB20849FB7903F00F03043B1201D2B2CF
:1019EC000B441A7600BF0C37BD4680BC704700BF55
:1019FC0000E100E000ED00E080B489B000AFF860D9
:101A0C00B9607A60FB6803F00703FB61FB69C3F103
:101A1C000703042B28BF0423BB61FB690433062B8B
:101A2C0002D9FB69033B00E000237B614FF0FF32DE
:101A3C00BB6902FA03F3DA43BB681A407B699A402C
:101A4C004FF0FF317B6901FA03F3D9437B680B40FC
:101A5C00134318462437BD4680BC704780B582B00E
:101A6C0000AF78607B68013BB3F1807F01D3012329
:101A7C000FE00A4A7B68013B53600F214FF0FF30A7
:101A8C00FFF790FF054B00229A60044B07221A6067
:101A9C00002318460837BD4680BD00BF10E000E0AB
:101AAC0080B582B000AF78607868FFF72DFF00BF7B
:101ABC000837BD4680BD80B586B000AF0346B9601F
:101ACC007A60FB7300237B61FFF742FF78617A68D1
:101ADC00B9687869FFF790FF024697F90F30114605
:101AEC001846FFF75FFF00BF1837BD4680BD80B5B5
:101AFC0082B000AF0346FB7197F907301846FFF729
:101B0C0035FF00BF0837BD4680BD80B582B000AF41
:101B1C0078607868FFF7A2FF034618460837BD4681
:101B2C0080BD000080B48BB000AF786039600023BA
:101B3C007B6200233B6248E101227B6A02FA03F3D9
:101B4C00FB613B681B68FA691340BB61BA69FB69AE
:101B5C009A4240F037813B685B68A34A93425ED05F
:101B6C00A14A934275D8A14A934258D09F4A9342B6
:101B7C006FD89F4A934252D09D4A934269D89D4A4E
:101B8C0093424CD09B4A934263D89B4A934246D093
:101B9C00994A93425DD8122B2AD8122B59D801A2FC
:101BAC0052F823F02B1C0008051C0008171C000819
:101BBC00591C00085F1C00085F1C00085F1C000813
:101BCC005F1C00085F1C00085F1C00085F1C0008FD
:101BDC005F1C00085F1C00085F1C00085F1C0008ED
:101BEC005F1C00085F1C00080D1C0008211C00086D
:101BFC00824A934213D02CE03B68DB683B6229E0BD
:101C0C003B68DB6804333B6224E03B68DB680833E9
:101C1C003B621FE03B68DB680C333B621AE03B68BD
:101C2C009B68002B02D104233B6213E03B689B684A
:101C3C00012B05D108233B627B68FA691A6109E024
:101C4C0008233B627B68FA695A6103E000233B621C
:101C5C0000E000BFBB69FF2B01D87B6801E07B680B
:101C6C0004337B61BB69FF2B02D87B6A9B0002E0CB
:101C7C007B6A083B9B003B617B691A680F213B69BF
:101C8C0001FA03F3DB431A40396A3B6901FA03F3A7
:101C9C001A437B691A603B685B6803F08053002B26
:101CAC0000F09080564B9B69554A43F001039361B9
:101CBC00534B9B6903F00103BB60BB68514A7B6AC1
:101CCC009B08023352F82330FB607B6A03F003035A
:101CDC009B000F2202FA03F3DB43FA681340FB600C
:101CEC007B68494A93420DD07B68484A934207D09F
:101CFC007B68474A934201D1022304E0032302E0AC
:101D0C00012300E000237A6A02F003029200934060
:101D1C00FA681343FB603B497B6A9B080233FA6801
:101D2C0041F823203B685B6803F48013002B06D03A
:101D3C00384B9A683749BB6913438B6006E0354BC7
:101D4C009A68BB69DB43334913408B603B685B6823
:101D5C0003F40013002B06D02E4BDA682D49BB6917
:101D6C001343CB6006E02B4BDA68BB69DB43294994
:101D7C001340CB603B685B6803F40033002B06D048
:101D8C00244B5A682349BB6913434B6006E0214B33
:101D9C005A68BB69DB431F4913404B603B685B6867
:101DAC0003F48033002B06D01A4B1A681949BB690F
:101DBC0013430B6006E0174B1A68BB69DB431549EC
:101DCC0013400B607B6A01337B623B681A687B6A49
:101DDC0022FA03F3002B7FF4AFAE00BF00BF2C3709
:101DEC00BD4680BC704700BF0000321000003110AF
:101DFC000000221000002110000012100000111031
:101E0C00001002400000014000080140000C01409D
:101E1C00001001400004014080B483B000AF786032
:101E2C000B467B8013467B707B78002B03D07A8823
:101E3C007B681A6103E07B881A047B681A6100BF17
:101E4C000C37BD4680BC704780B485B000AF78605D
:101E5C000B467B807B68DB68FB607A88FB681340F1
:101E6C001A04FB68D9437B880B401A437B681A61C0
:101E7C0000BF1437BD4680BC7047000080B586B0EB
:101E8C0000AF78607B68002B01D101236CE27B688A
:101E9C001B6803F00103002B00F08780924B5B68FA
:101EAC0003F00C03042B0CD08F4B5B6803F00C037A
:101EBC00082B12D18C4B5B6803F48033B3F5803F55
:101ECC000BD1894B1B6803F40033002B6CD07B685F
:101EDC005B68002B68D1012346E27B685B68B3F535
:101EEC00803F06D1804B1B687F4A43F480331360DC
:101EFC002EE07B685B68002B0CD17B4B1B687A4A0D
:101F0C0023F480331360784B1B68774A23F48023C7
:101F1C0013601DE07B685B68B3F5A02F0CD1724B8E
:101F2C001B68714A43F4802313606F4B1B686E4A25
:101F3C0043F4803313600BE06B4B1B686A4A23F449
:101F4C0080331360684B1B68674A23F4802313604B
:101F5C007B685B68002B13D0FFF7CCFC386108E082
:101F6C00FFF7C8FC02463B69D31A642B01D9032343
:101F7C00FAE15D4B1B6803F40033002BF0D014E046
:101F8C00FFF7B8FC386108E0FFF7B4FC02463B6988
:101F9C00D31A642B01D90323E6E1534B1B6803F4DA
:101FAC000033002BF0D100E000BF7B681B6803F00E
:101FBC000203002B63D04C4B5B6803F00C03002B2B
:101FCC000BD0494B5B6803F00C03082B1CD1464B20
:101FDC005B6803F48033002B16D1434B1B6803F072
:101FEC000203002B05D07B681B69012B01D0012358
:101FFC00BAE13D4B1B6823F0F8027B685B69DB00A0
:10200C00394913430B603AE07B681B69002B20D0E5
:10201C00364B01221A60FFF76DFC386108E0FFF7C0
:10202C0069FC02463B69D31A022B01D903239BE1BD
:10203C002D4B1B6803F00203002BF0D02A4B1B68BE
:10204C0023F0F8027B685B69DB00274913430B60C4
:10205C0015E0264B00221A60FFF74CFC386108E0B3
:10206C00FFF748FC02463B69D31A022B01D9032324
:10207C007AE11D4B1B6803F00203002BF0D17B6847
:10208C001B6803F00803002B3AD07B689B69002B7C
:10209C0019D0174B01221A60FFF72CFC386108E0AD
:1020AC00FFF728FC02463B69D31A022B01D9032304
:1020BC005AE10D4B5B6A03F00203002BF0D00120B8
:1020CC0000F09AFA1CE00A4B00221A60FFF712FC8F
:1020DC0038610FE0FFF70EFC02463B69D31A022B66
:1020EC0008D9032340E100BF001002400000424227
:1020FC00800442429E4B5B6A03F00203002BE9D141
:10210C007B681B6803F00403002B00F0A6800023FF
:10211C00FB75974BDB6903F08053002B0DD1944B6F
:10212C00DB69934A43F08053D361914BDB6903F035
:10213C008053BB60BB680123FB758E4B1B6803F49B
:10214C008073002B18D18B4B1B688A4A43F4807325
:10215C001360FFF7CFFB386108E0FFF7CBFB0246BB
:10216C003B69D31A642B01D90323FDE0814B1B6817
:10217C0003F48073002BF0D07B68DB68012B06D155
:10218C007B4B1B6A7A4A43F0010313622DE07B6898
:10219C00DB68002B0CD1764B1B6A754A23F00103CC
:1021AC001362734B1B6A724A23F0040313621CE024
:1021BC007B68DB68052B0CD16D4B1B6A6C4A43F0BA
:1021CC00040313626A4B1B6A694A43F001031362EE
:1021DC000BE0674B1B6A664A23F001031362644BE6
:1021EC001B6A634A23F0040313627B68DB68002BD1
:1021FC0015D0FFF77FFB38610AE0FFF77BFB024647
:10220C003B69D31A41F28832934201D90323ABE0E4
:10221C00574B1B6A03F00203002BEED014E0FFF7C0
:10222C0069FB38610AE0FFF765FB02463B69D31A8C
:10223C0041F28832934201D9032395E04C4B1B6A3F
:10224C0003F00203002BEED1FB7D012B05D1484B93
:10225C00DB69474A23F08053D3617B68DB69002B31
:10226C0000F08180424B5B6803F00C03082B61D0BB
:10227C007B68DB69022B46D13F4B00221A60FFF7CB
:10228C0039FB386108E0FFF735FB02463B69D31A8E
:10229C00022B01D9032367E0354B1B6803F0007355
:1022AC00002BF0D17B681B6AB3F5803F08D1304B13
:1022BC005B6823F400327B689B682D4913434B60A9
:1022CC002B4B5B6823F474127B68196A7B685B6A1E
:1022DC000B43274913434B60274B01221A60FFF72E
:1022EC0009FB386108E0FFF705FB02463B69D31A8E
:1022FC00022B01D9032337E01D4B1B6803F000733D
:10230C00002BF0D02FE01C4B00221A60FFF7F2FAE2
:10231C00386108E0FFF7EEFA02463B69D31A022B4C
:10232C0001D9032320E0124B1B6803F00073002B30
:10233C00F0D118E07B68DB69012B01D1012313E09C
:10234C000B4B5B68FB60FB6803F480327B681B6A99
:10235C009A4206D1FB6803F470127B685B6A9A425E
:10236C0001D0012300E0002318461837BD4680BD7C
:10237C0000100240007000406000424280B584B002
:10238C0000AF786039607B68002B01D10123D0E06D
:10239C006A4B1B6803F007033A689A4210D9674BE3
:1023AC001B6823F0070265493B6813430B60634BC2
:1023BC001B6803F007033A689A4201D00123B8E086
:1023CC007B681B6803F00203002B20D07B681B6822
:1023DC0003F00403002B05D0594B5B68584A43F4B7
:1023EC00E06353607B681B6803F00803002B05D087
:1023FC00534B5B68524A43F460535360504B5B68D9
:10240C0023F0F0027B689B684D4913434B607B685B
:10241C001B6803F00103002B40D07B685B68012B29
:10242C0007D1474B1B6803F40033002B15D1012354
:10243C007FE07B685B68022B07D1414B1B6803F084
:10244C000073002B09D1012373E03D4B1B6803F093
:10245C000203002B01D101236BE0394B5B6823F0A5
:10246C0003027B685B68364913434B60FFF742FA03
:10247C00F8600AE0FFF73EFA0246FB68D31A41F215
:10248C008832934201D9032353E02D4B5B6803F050
:10249C000C027B685B689B009A42EBD1274B1B6854
:1024AC0003F007033A689A4210D2244B1B6823F0BE
:1024BC00070222493B6813430B60204B1B6803F057
:1024CC0007033A689A4201D0012332E07B681B680B
:1024DC0003F00403002B08D0194B5B6823F4E06273
:1024EC007B68DB68164913434B607B681B6803F001
:1024FC000803002B09D0124B5B6823F460527B68F5
:10250C001B69DB000E4913434B6000F021F80246B7
:10251C000B4B5B681B0903F00F030A49CB5C22FAD7
:10252C0003F3094A1360094B1B681846FFF7A0F91F
:10253C00002318461037BD4680BD00BF0020024066
:10254C0000100240682E0008280000202C000020FB
:10255C0080B487B000AF0023FB600023BB60002376
:10256C007B6100237B6000233B611E4B5B68FB603F
:10257C00FB6803F00C03042B02D0082B03D027E0DC
:10258C00194B3B6127E0FB689B0C03F00F03174AC8
:10259C00D35C7B60FB6803F48033002B10D0114BB1
:1025AC005B685B0C03F00103114AD35CBB607B6876
:1025BC000D4A02FB03F2BB68B2FBF3F37B6104E050
:1025CC007B680C4A02FB03F37B617B693B6102E095
:1025DC00054B3B6100BF3B6918461C37BD4680BCB0
:1025EC00704700BF0010024000127A00782E0008DD
:1025FC00882E000800093D0080B485B000AF7860DB
:10260C000A4B1B680A4AA2FB03235B0A7A6802FB8B
:10261C0003F3FB6000BFFB685A1EFA60002BF9D174
:10262C0000BF00BF1437BD4680BC70472800002097
:10263C00D34D621080B582B000AF78607B68002B00
:10264C0001D1012341E07B6893F83D30DBB2002BD4
:10265C0006D17B68002283F83C207868FFF770F87D
:10266C007B68022283F83D207B681A687B68043300
:10267C001946104600F056FA7B68012283F8462072
:10268C007B68012283F83E207B68012283F83F207F
:10269C007B68012283F840207B68012283F841206B
:1026AC007B68012283F842207B68012283F8432057
:1026BC007B68012283F844207B68012283F8452043
:1026CC007B68012283F83D20002318460837BD465D
:1026DC0080BD000080B485B000AF78607B6893F853
:1026EC003D30DBB2012B01D0012335E07B680222A7
:1026FC0083F83D207B681B68DA687B681B6842F0B6
:10270C000102DA607B681B68164A934209D07B6829
:10271C001B68B3F1804F04D07B681B68124A93424C
:10272C0011D17B681B689B6803F00703FB60FB6897
:10273C00062B10D07B681B681A687B681B6842F0FC
:10274C0001021A6007E07B681B681A687B681B68CB
:10275C0042F001021A60002318461437BD4680BCB3
:10276C00704700BF002C01400004004080B584B0CD
:10277C0000AF78607B681B68DB68FB607B681B685C
:10278C001B69BB60BB6803F00203002B20D0FB6805
:10279C0003F00203002B1BD07B681B686FF0020256
:1027AC001A617B6801221A777B681B689B6903F0AE
:1027BC000303002B03D0786800F098F905E07868E3
:1027CC0000F08BF9786800F09AF97B6800221A7790
:1027DC00BB6803F00403002B20D0FB6803F0040358
:1027EC00002B1BD07B681B686FF004021A617B689E
:1027FC0002221A777B681B689B6903F44073002BD9
:10280C0003D0786800F072F905E0786800F065F99B
:10281C00786800F074F97B6800221A77BB6803F0C3
:10282C000803002B20D0FB6803F00803002B1BD0FF
:10283C007B681B686FF008021A617B6804221A77A8
:10284C007B681B68DB6903F00303002B03D07868FB
:10285C0000F04CF905E0786800F03FF9786800F07A
:10286C004EF97B6800221A77BB6803F01003002B2B
:10287C0020D0FB6803F01003002B1BD07B681B6877
:10288C006FF010021A617B6808221A777B681B684C
:10289C00DB6903F44073002B03D0786800F026F951
:1028AC0005E0786800F019F9786800F028F97B6881
:1028BC0000221A77BB6803F00103002B0CD0FB68D5
:1028CC0003F00103002B07D07B681B686FF001023B
:1028DC001A617868FDF73CFEBB6803F08003002B9F
:1028EC000CD0FB6803F08003002B07D07B681B68BF
:1028FC006FF080021A61786800F06FFABB6803F021
:10290C004003002B0CD0FB6803F04003002B07D0D6
:10291C007B681B686FF040021A61786800F0F8F869
:10292C00BB6803F02003002B0CD0FB6803F02003E2
:10293C00002B07D07B681B686FF020021A61786847
:10294C0000F042FA00BF1037BD4680BD80B584B0A0
:10295C0000AF786039600023FB737B6893F83C30E0
:10296C00012B01D10223B4E07B68012283F83C20C7
:10297C007B68022283F83D207B681B689B68BB60E8
:10298C00BB6823F07703BB60BB6823F47F43BB6059
:10299C007B681B68BA689A603B681B68B3F5005F7C
:1029AC003ED0B3F5005F00F28780B3F5805F00F096
:1029BC008680B3F5805F7FD8702B1AD0702B7BD8B4
:1029CC00602B50D0602B77D8502B3CD0502B73D829
:1029DC00402B58D0402B6FD8302B64D0302B6BD879
:1029EC00202B60D0202B67D8002B5CD0102B5AD01A
:1029FC0062E07B6818683B6899683B685A683B687A
:102A0C00DB6800F06AF97B681B689B68BB60BB687D
:102A1C0043F07703BB607B681B68BA689A604FE031
:102A2C007B6818683B6899683B685A683B68DB6848
:102A3C0000F053F97B681B689A687B681B6842F44A
:102A4C0080429A603CE07B6818683B6859683B6838
:102A5C00DB681A4600F0CAF87B681B6850211846E0
:102A6C0000F021F92CE07B6818683B6859683B68DA
:102A7C00DB681A4600F0E8F87B681B686021184692
:102A8C0000F011F91CE07B6818683B6859683B68DA
:102A9C00DB681A4600F0AAF87B681B6840211846D0
:102AAC0000F001F90CE07B681A683B681B6819465A
:102ABC00104600F0F8F803E00123FB7300E000BFC0
:102ACC007B68012283F83D207B68002283F83C2040
:102ADC00FB7B18461037BD4680BD80B483B000AF79
:102AEC00786000BF0C37BD4680BC704780B483B0A3
:102AFC0000AF786000BF0C37BD4680BC704780B417
:102B0C0083B000AF786000BF0C37BD4680BC704707
:102B1C0080B483B000AF786000BF0C37BD4680BC7A
:102B2C007047000080B485B000AF786039607B6876
:102B3C001B68FB607B682B4A934207D07B68B3F120
:102B4C00804F03D07B68284A934208D1FB6823F05E
:102B5C007003FB603B685B68FA681343FB607B683F
:102B6C00204A934207D07B68B3F1804F03D07B6837
:102B7C001D4A934208D1FB6823F44073FB603B6809
:102B8C00DB68FA681343FB60FB6823F080023B6848
:102B9C005B691343FB607B68FA681A603B689A6850
:102BAC007B68DA623B681A687B689A627B680D4ABC
:102BBC00934203D13B681A697B681A637B680122D4
:102BCC005A617B681B6903F00103002B05D07B68FD
:102BDC001B6923F001027B681A6100BF1437BD46E4
:102BEC0080BC7047002C01400004004080B487B0CA
:102BFC0000AFF860B9607A60FB681B6A7B61FB68A8
:102C0C001B6A23F00102FB681A62FB689B693B613B
:102C1C003B6923F0F0033B617B681B013A6913436A
:102C2C003B617B6923F00A037B617A69BB681343C0
:102C3C007B61FB683A699A61FB687A691A6200BF2A
:102C4C001C37BD4680BC704780B487B000AFF860BD
:102C5C00B9607A60FB681B6A7B61FB681B6A23F0B6
:102C6C001002FB681A62FB689B693B613B6923F4A9
:102C7C0070433B617B681B033A6913433B617B697F
:102C8C0023F0A0037B61BB681B017A6913437B6152
:102C9C00FB683A699A61FB687A691A6200BF1C3753
:102CAC00BD4680BC704780B485B000AF7860396099
:102CBC007B689B68FB60FB6823F07003FB603A68E1
:102CCC00FB68134343F00703FB607B68FA689A6068
:102CDC0000BF1437BD4680BC704780B487B000AFCE
:102CEC00F860B9607A603B60FB689B687B617B69CC
:102CFC0023F47F437B613B681A027B681A43BB68F1
:102D0C0013437A6913437B61FB687A699A6000BF4D
:102D1C001C37BD4680BC704780B485B000AF78606E
:102D2C0039607B6893F83C30012B01D1022341E0E0
:102D3C007B68012283F83C207B68022283F83D20CB
:102D4C007B681B685B68FB607B681B689B68BB606F
:102D5C00FB6823F07003FB603B681B68FA68134345
:102D6C00FB607B681B68FA685A607B681B68144AB6
:102D7C00934209D07B681B68B3F1804F04D07B6809
:102D8C001B68104A93420CD1BB6823F08003BB60D4
:102D9C003B685B68BA681343BB607B681B68BA68A6
:102DAC009A607B68012283F83D207B68002283F8BF
:102DBC003C20002318461437BD4680BC704700BF2A
:102DCC00002C01400004004080B483B000AF786058
:102DDC0000BF0C37BD4680BC704780B483B000AFD9
:102DEC00786000BF0C37BD4680BC704770B50026BC
:102DFC000C4D0D4C641BA410A64209D100F022F816
:102E0C0000260A4D0A4C641BA410A64205D170BDC5
:102E1C0055F8043B98470136EEE755F8043B9847C4
:102E2C000136F2E78C2E00088C2E00088C2E000840
:102E3C00902E000803460244934200D1704703F8D9
:102E4C00011BF9E7F8B500BFF8BC08BC9E467047FB
:0C2E5C00F8B500BFF8BC08BC9E467047EB
:102E68000000000000000000010203040607080932
:102E780002030405060708090A0B0C0D0E0F1010B3
:042E88000102000043
:042E8C003101000808
:042E90000D01000828
:102E94000100000002000000030000000400000024
:102EA400183C66667E7E66660F000000080000001F
:102EB400320000000A00000000127A001000000036
:042EC4000100000009
:0400000508001805D2
:00000001FF
